:020000040000FA
:100000000C9462000C948A000C948A000C948A0070
:100010000C948A000C948A000C948A000C948A0038
:100020000C948A000C948A000C948A000C948A0028
:100030000C948A000C948A000C948A000C948A0018
:100040000C9418080C948A000C94E6070C94C007D2
:100050000C948A000C948A000C948A000C948A00F8
:100060000C948A000C948A000000000024002700F1
:100070002A0000000000250028002B0000000000DE
:1000800023002600290004040404040404040202DA
:100090000202020203030303030301020408102007
:1000A0004080010204081020010204081020000012
:1000B0000008000201000003040700000000000027
:1000C0000000620811241FBECFEFD8E0DEBFCDBF15
:1000D00011E0A0E0B1E0E6E4F0E202C005900D928C
:1000E000AE35B107D9F722E0AEE5B1E001C01D920F
:1000F000A535B207E1F710E0C2E6D0E004C02197D1
:10010000FE010E94DF0FC136D107C9F70E940A091C
:100110000C9421100C9400004F925F926F927F928A
:100120008F929F92AF92BF92CF92DF92EF92FF9207
:100130000F931F93CF93DF93C0901C02D0901D02AA
:10014000E0901E02F0901F02809118029091190217
:10015000A0911A02B0911B02C81AD90AEA0AFB0A36
:1001600060912002709121028091220290912302DD
:100170009B01AC010E94E80E4B015C0160912802DA
:100180007091290280912A0290912B029B01AC016F
:100190000E94180D9B01AC01C501B4010E94890D9C
:1001A0000E94FB0DC114D104E104F10409F0D3C095
:1001B00062307105810591050CF0F2C01092300299
:1001C00010923102109232021092330210922002E9
:1001D00010922102109222021092230210924002E9
:1001E000109241021092420210924302DF91CF918D
:1001F0001F910F91FF90EF90DF90CF90BF90AF9045
:100200009F908F907F906F905F904F900895101601
:10021000110612061306DCF46C157D058E059F058C
:1002200024F420910E022111BBC09B01AC01882750
:100230009927DC01821B930BA40BB50B8093400222
:1002400090934102A0934202B0934302A9C00115CA
:1002500011052105310509F4A3C06C157D058E0536
:100260009F050CF09DC080910E02882309F498C070
:1002700030952095109501951F4F2F4F3F4F0093BC
:10028000400210934102209342023093430288C0FF
:10029000011511052105310509F482C0882499242E
:1002A00054018C189D08AE08BF08681579058A05A9
:1002B0009B050CF075C080910E02811171C0D8CFE2
:1002C000C0904802D0904902E0904A02F0904B0260
:1002D000A7019601C701B6010E94180D2B013C0130
:1002E000C501B4010E94330E20E030E040E850E444
:1002F0000E94E80E20E030E040E85FE30E94180D25
:100300009B01AC01C301B2010E94890D9B01AC01AC
:10031000C701B6010E94170DD62FC72F6C01E090C0
:100320004C02F0904D0200914E0210914F02970145
:10033000A8010E94E30E18161CF4ED2EFC2E860177
:10034000C701D8018093480290934902A0934A02C2
:10035000B0934B024CC00091400210914102209199
:100360004202309143021C141D041E041F040CF4AD
:100370004ECF10161106120613060CF089CF002777
:10038000112798010C191D092E093F0960177107E3
:10039000820793070CF049CF20910E02211145CF1F
:1003A0008090400290904102A0904202B09043029F
:1003B00081149104A104B10409F082CF8091440218
:1003C00090914502A0914602B09147028093480265
:1003D00090934902A0934A02B0934B0281E01C140F
:1003E0001D041E041F040CF080E080930E023FEFFA
:1003F000831A930AA30AB30A8092400290924102A0
:10040000A0924202B0924302C0904802D0904902AA
:10041000E0904A02F0904B02C701B6010E94020E22
:1004200060933002709331028093320290933302D2
:10043000A701960160E074E284E799E40E94890DC7
:1004400060932002709321028093220290932302F2
:1004500020910E022111CACE905860932002709311
:1004600021028093220290932302C0CE80915302F6
:10047000909154028230910538F0880F991F880FAF
:10048000991F05970197F1F70895AF92BF92CF9208
:10049000DF92EF92FF920F931F93CF93DF936C0144
:1004A0007B018B01040F151FEB015E01AE18BF0825
:1004B000C017D10759F06991D601ED91FC910190D7
:1004C000F081E02DC6010995892B79F7C501DF91EF
:1004D000CF911F910F91FF90EF90DF90CF90BF9041
:1004E000AF900895FC01538D448D252F30E0842F6B
:1004F00090E0821B930B541710F0CF96089501974C
:100500000895FC01918D828D981761F0A28DAE0F38
:10051000BF2FB11D5D968C91928D9F5F9F73928FBF
:1005200090E008958FEF9FEF0895FC01918D828DEB
:10053000981731F0828DE80FF11D858D90E00895B8
:100540008FEF9FEF0895FC01918D228D892F90E010
:10055000805C9F4F821B91098F73992708958FE6C6
:1005600091E00E94A30221E0892B09F420E0822F70
:10057000089580E090E0892B29F00E94AF0281115C
:100580000C9400000895FC01A48DA80FB92FB11D93
:10059000A35ABF4F2C91848D90E001968F739927B9
:1005A000848FA689B7892C93A089B1898C91837097
:1005B00080648C93938D848D981306C00288F38990
:1005C000E02D80818F7D80830895EF92FF920F93BD
:1005D0001F93CF93DF93EC0181E0888F9B8D8C8DEF
:1005E00098131AC0E889F989808185FF15C09FB7E3
:1005F000F894EE89FF896083E889F98980818370A6
:10060000806480839FBF81E090E0DF91CF911F9154
:100610000F91FF90EF900895F62E0B8D10E00F5F75
:100620001F4F0F731127E02E8C8D8E110CC00FB64B
:1006300007FCFACFE889F989808185FFF5CFCE01E3
:100640000E94C302F1CFEB8DEC0FFD2FF11DE35A99
:10065000FF4FF0829FB7F8940B8FEA89FB89808166
:100660008062CFCFCF93DF93EC01888D8823B9F0E0
:10067000AA89BB89E889F9898C9185FD03C08081AD
:1006800086FD0DC00FB607FCF7CF8C9185FFF2CF2A
:10069000808185FFEDCFCE010E94C302E9CFDF91BB
:1006A000CF910895833081F028F4813099F0823021
:1006B000A9F008958730A9F08830C9F08430B1F4EA
:1006C000809180008F7D03C0809180008F77809320
:1006D0008000089584B58F7784BD089584B58F7D9B
:1006E000FBCF8091B0008F778093B0000895809108
:1006F000B0008F7DF9CFCF93DF93282F30E0F90141
:10070000E255FF4F8491F901E656FF4FD491F9016C
:10071000EA57FF4FC491CC23A1F081110E945203EC
:10072000EC2FF0E0EE0FFF1FE458FF4FA591B491BE
:10073000EC91ED2381E090E009F480E0DF91CF912E
:10074000089580E090E0FACF1F93CF93DF93282F96
:1007500030E0F901E255FF4F8491F901E656FF4F71
:10076000D491F901EA57FF4FC491CC23A9F0162F79
:1007700081110E945203EC2FF0E0EE0FFF1FEE58A4
:10078000FF4FA591B4918FB7F894EC91111108C067
:10079000D095DE23DC938FBFDF91CF911F91089519
:1007A000DE2BF8CFCF93DF9390E0FC01E656FF4FAE
:1007B00024918A579F4FFC0184918823C9F090E0CF
:1007C000880F991FFC01E859FF4FA591B491FC01D6
:1007D000EE58FF4FC591D49161110DC09FB7F894A9
:1007E0008C91209582238C938881282328839FBF16
:1007F000DF91CF910895623051F49FB7F8943C9106
:10080000822F809583238C93E8812E2BEFCF8FB797
:10081000F894EC912E2B2C938FBFEACFCF93DF93DC
:10082000C0E5D2E061E089810E94D2030E943602D5
:1008300060E088810E94D2030E94360260E08981D4
:100840000E94D203DF91CF910C9436020F931F9335
:10085000CF93DF93D82FC8E061E0809150020E94CF
:10086000D2030E9436020D2F10E060E0D0FF61E05D
:10087000809151020E94D2030E94360260E0809172
:1008800050020E94D2030E94360215950795D02F80
:10089000C15011F761E0809150020E94D20360E0E4
:1008A000809151020E94D2030E94360260E0809142
:1008B00050020E94D2030E943602809151020E948F
:1008C0007B03C82F811105C061E0809151020E9415
:1008D000D2030E94360261E0809150020E94D2034E
:1008E0000E94360281E0C11101C080E0DF91CF910A
:1008F0001F910F91089561E0809151020E94D203EF
:100900000C943602CF93DF930E947B0480E40E9414
:1009100026040E940E040E947B0480EC0E942604A0
:10092000CBE6D1E088810E94260489810E942604BA
:100930008A810E9426048B810E9426040E940E0454
:100940000E947B04809152028F7080580E9426047E
:10095000DF91CF910C940E043FB7F894809163011E
:1009600090916401A0916501B091660126B5A89BA4
:1009700005C02F3F19F00196A11DB11D3FBFBA2F31
:10098000A92F982F8827BC01CD01620F711D811DF1
:10099000911D42E0660F771F881F991F4A95D1F776
:1009A00008958F929F92AF92BF92CF92DF92EF9273
:1009B000FF924B015C010E94AC046B017C010E9420
:1009C000AC046C197D098E099F09683E734081054E
:1009D0009105A8F321E0821A9108A108B10888EED8
:1009E000C80E83E0D81EE11CF11C81149104A104FF
:1009F000B10429F7FF90EF90DF90CF90BF90AF90B8
:100A00009F908F900895CF93DF93FC012381222341
:100A100059F1EC0161E084810E94D20361E08D8193
:100A20000E94D2038B81843011F08830B1F461E0F0
:100A30008E810E94D20361E08F810E94D2038FA534
:100A40008F3F91F061E00E94D2036EA581E068279C
:100A50008FA5DF91CF910C94A403833011F08630E1
:100A600071F761E08E81E9CFDF91CF910895CF9347
:100A7000DF93FC0123812223A9F0EC010190F08196
:100A8000E02D0480F581E02D60E009958FA58F3F72
:100A900049F061E00E94D2036EA58FA5DF91CF914E
:100AA0000C94A403DF91CF910895DC01ED91FC91AA
:100AB0002481358147705527662777274150510992
:100AC00061097109473051056105710560F4FA014A
:100AD000E459FA4F0C94DF0F760578057A057C050A
:100AE0007E058005820561E0F901099465E0FCCF8F
:100AF00064E0FACF66E0F8CF62E0F6CF6AE0F4CFC8
:100B000068E0F2CF69E0F0CFCF93DF93EC01CB0147
:100B1000BA0126E030E040E050E00E94C00F6230B1
:100B200071058105910589F16CF4611571058105E7
:100B30009105D1F06130710581059105F9F0DF91E2
:100B4000CF910895643071058105910561F124F11B
:100B5000653071058105910591F7E881F98104807F
:100B6000F581E02D66E006C0E881F9810480F58119
:100B7000E02D64E0CE01DF91CF910994E881F98105
:100B80000480F581E02D65E0F5CFE881F9810480EE
:100B9000F581E02D61E0EECFE881F9810480F581F7
:100BA000E02D63E0E7CFE881F9810480F581E02D55
:100BB00062E0E0CFDC01ED91FC910480F581E02D55
:100BC0004370552766277727423051056105710527
:100BD00071F0433051056105710559F041305105FF
:100BE0006105710511F065E0099466E0FDCF6AE0EA
:100BF000FBCF69E0F9CFCF93DF93EC01CB01BA01D2
:100C000023E030E040E050E00E94C00F6130710509
:100C10008105910599F06230710581059105A9F072
:100C2000672B682B692BC1F4E881F9810480F58179
:100C3000E02D64E0CE01DF91CF910994E881F98144
:100C40000480F581E02D61E0F5CFE881F981048031
:100C5000F581E02D62E0EECFDF91CF910895DC01C8
:100C6000ED91FC910480F581E02D437055276627B6
:100C70007727423051056105710571F04330510508
:100C80006105710559F0413051056105710511F09B
:100C900062E0099463E0FDCF61E0FBCF60E0F9CF53
:100CA000CF93DF93EC01E881F9810480F581E02D99
:100CB0008A8160E0811162E0CE010995E881F981C5
:100CC0000480F581E02D8A8161E0811163E0CE012D
:100CD00009958CA59DA58230910538F0880F991F44
:100CE000880F991F05970197F1F7E881F981048032
:100CF000F581E02D8A8160E0811162E0CE01DF9113
:100D0000CF910994CF93DF93EC0120E030E0A9016B
:100D10006C897D898E899F890E94E30E18162CF4B8
:100D2000E8A9F9A9DF91CF910994EAA9FBA9FACF23
:100D3000CF92DF92EF92FF920F931F93CF93DF93A7
:100D4000DC011396CC91C43039F0C83059F1C3306E
:100D500019F0C63049F1C2E08C010C5F1F4FF12C35
:100D6000E12CC62ED12CD1E0F8016481C6010E2CF5
:100D700002C0959587950A94E2F780FD6D270F5F75
:100D80001F4F80810E94A403BFEFEB1AFB0AEC16F1
:100D900058F3DF91CF911F910F91FF90EF90DF906B
:100DA000CF900895C4E0D8CFC3E0D6CFDC0113962E
:100DB000EC911397E93008F038C0F0E0EE51F94FAC
:100DC0000C94DF0FEB06F106F706FD060307150787
:100DD000090715070F07ED91FC910084F185E02DBF
:100DE0000994ED91FC910284F385E02DF9CFED910A
:100DF000FC910484F585E02DF3CFED91FC91068400
:100E0000F785E02DEDCFED91FC910088F189E02D83
:100E1000E7CFED91FC910288F389E02DE1CFED91D0
:100E2000FC910488F589E02DDBCF08954F925F9205
:100E30006F927F928F929F92AF92BF92CF92DF92EA
:100E4000EF92FF926B017C0120E030E0A9010E944B
:100E5000840D87FF04C0F7FAF094F7F8F0948090BF
:100E6000280290902902A0902A02B0902B02A7019C
:100E70009601C501B4010E94840D882309F456C06F
:100E80006091400270914102809142029091430230
:100E90000E94330E2B013C01A7019601C501B4014C
:100EA0000E94890D9B01AC01C301B2010E94E80EB2
:100EB0000E94FB0D609340027093410280934202B6
:100EC00090934302A701960160E070E080E090E417
:100ED0000E94890D0E945B0F26E53EE04DE25FE334
:100EE0000E94E80E20E034E244E759E40E94E80E54
:100EF00060934402709345028093460290934702A8
:100F0000C0922802D0922902E0922A02F0922B028B
:100F1000FF90EF90DF90CF90BF90AF909F908F9019
:100F20007F906F905F904F900C948C00FF90EF90AB
:100F3000DF90CF90BF90AF909F908F907F906F90F9
:100F40005F904F900895CF93DF93FC0101900020B4
:100F5000E9F73197AF01481B590BBC018FE691E0CF
:100F60000E944502EC0142E050E060E571E08FE64E
:100F700091E00E9445028C0F9D1FDF91CF91089553
:100F80001F920F920FB60F9211242F933F934F93FE
:100F90005F936F937F938F939F93AF93BF93EF93E1
:100FA000FF938FE691E00E94C302FF91EF91BF9102
:100FB000AF919F918F917F916F915F914F913F91F1
:100FC0002F910F900FBE0F901F9018951F920F92A8
:100FD0000FB60F9211242F938F939F93EF93FF934C
:100FE000E0917F01F09180018081E0918501F09195
:100FF000860182FD1BC09081809188018F5F8F7375
:1010000020918901821741F0E0918801F0E0E159D7
:10101000FE4F958F80938801FF91EF919F918F9163
:101020002F910F900FBE0F901F9018958081F4CFD5
:101030001F920F920FB60F9211242F933F938F930D
:101040009F93AF93BF9380915F0190916001A091B6
:101050006101B091620130915E0123E0230F2D37D1
:1010600058F50196A11DB11D20935E0180935F018B
:1010700090936001A0936101B0936201809163013C
:1010800090916401A0916501B09166010196A11D46
:10109000B11D8093630190936401A0936501B093A7
:1010A0006601BF91AF919F918F913F912F910F90CA
:1010B0000FBE0F901F90189526E8230F0296A11DD2
:1010C000B11DD2CF1F93CF93DF93EFE6F1E01382F0
:1010D000128288EE93E0A0E0B0E084839583A6833B
:1010E000B78388E291E09183808385EC90E09587D7
:1010F000848784EC90E09787868780EC90E0918BE2
:10110000808B81EC90E0938B828B82EC90E0958BCE
:10111000848B86EC90E0978B868B118E128E138ECB
:10112000148EC0E5D2E015E0188386E0898384E65A
:1011300090E09C838B8360E085E00E94D20360E0B6
:1011400089810E94D20360E088810E94A40360E04C
:1011500089810E94A403ECE0F2E08AE391E09183AC
:10116000808381E083831486158616861786108A0D
:10117000118A128A138A148A158A168A178A80E0BD
:1011800090E0A0E8BFE3808F918FA28FB38F148E81
:10119000158E168E178E80A391A3A2A3B3A314A2BB
:1011A00015A216A217A221E030E035A724A72FEF41
:1011B00027A710A611A612A613A623E0248322E0D7
:1011C000258324E02683178316A614AA15AA16AA37
:1011D00017AA10AE11AE12AE13AE14AE15AE16AE07
:1011E00017AE80934C0290934D02A0934E02B093A1
:1011F0004F0212821086118612861386CF010E943A
:10120000030560E070E080E89FE3DF91CF911F91DC
:101210000C941607789484B5826084BD84B581608F
:1012200084BD85B5826085BD85B5816085BD8091B1
:101230006E00816080936E00109281008091810029
:101240008260809381008091810081608093810021
:10125000809180008160809380008091B1008460E3
:101260008093B1008091B00081608093B000809144
:101270007A00846080937A0080917A008260809303
:101280007A0080917A00816080937A0080917A0060
:10129000806880937A001092C100E0917F01F09104
:1012A000800182E08083E0917B01F0917C011082DB
:1012B000E0917D01F0917E018FEC80831092870197
:1012C000E0918301F091840186E08083E0918101C7
:1012D000F0918201808180618083E0918101F091B1
:1012E0008201808188608083E0918101F091820198
:1012F000808180688083E0918101F091820180810A
:101300008F7D808320E030E84BE355E46091240238
:101310007091250280912602909127020E94840DEF
:10132000882309F451C080E090E8ABE3B5E48093F2
:10133000240290932502A0932602B09327028BEA01
:101340009AEAA6EAB3E480934C0290934D02A093EC
:101350004E02B0934F028091400290914102A091C1
:101360004202B0914302181619061A061B0664F5CC
:1013700060912002709121028091220290912302BB
:101380009B01AC010E94E80E6B017C016091280278
:101390007091290280912A0290912B029B01AC014D
:1013A0000E94180D9B01AC01C701B6010E94890D76
:1013B0000E94FB0D609340027093410280934202B1
:1013C000909343020E948C0060E070E08AEF93E407
:1013D0000E94160761E084E00E94D20361E084E08D
:1013E0000E94A40362E08BE00E94D20362E08CE0E2
:1013F0000E94D20362E08DE00E94D203809104013A
:1014000090910501A0910601B0910701845E9E4F65
:10141000FC01808190E0B0E0A0E0809367019093B0
:101420006801A0936901B0936A01609167017091AE
:1014300068018091690190916A012AE0C22ED12C45
:10144000E12CF12CA70196010E94C00F6F70E62FCE
:10145000F0E0E45FFE4F808180936E016091670150
:10146000709168018091690190916A01A7019601CC
:101470000E94C00FCA01B901A70196010E94C00FC6
:101480006F70E62FF0E0E45FFE4F808180936D0186
:1014900060916701709168018091690190916A0182
:1014A00024E630E040E050E00E94C00FCA01B901DC
:1014B000A70196010E94C00F6F70E62FF0E0E45F75
:1014C000FE4F808180936C0160916701709168018B
:1014D0008091690190916A0128EE33E040E050E08C
:1014E0000E94C00FCA01B901A70196010E94C00F56
:1014F0006F70E62FF0E0E45FFE4F808180936B0118
:101500008FE0809352020E94820462E370E080E0E8
:1015100090E00E94D10434E6432E512C612C712CB2
:1015200048EE842E43E0942EA12CB12CDFE0CAE0DB
:101530008BE00E947B03892B09F401C18CE00E949F
:101540007B03892BB1F58091040190910501A09155
:101550000601B09107010196A11DB11D8093040100
:1015600090930501A0930601B093070140910001FB
:101570005091010160910201709103018091040179
:1015800090910501A0910601B091070148175907F4
:101590006A077B0744F4109204011092050110922F
:1015A00006011092070168EC70E080E090E00E9474
:1015B000D1048DE00E947B03892B99F58091040171
:1015C00090910501A0910601B09107010197A10931
:1015D000B1098093040190930501A0930601B09393
:1015E00007018091040190910501A0910601B0913D
:1015F0000701B7FF10C08091000190910101A091F7
:101600000201B09103018093040190930501A0931E
:101610000601B093070168EC70E080E090E00E9462
:10162000D1048091040190910501A0910601B0912F
:101630000701845E9E4FFC01808190E0B0E0A0E055
:101640008093670190936801A0936901B0936A0148
:1016500060916701709168018091690190916A01C0
:10166000A70196010E94C00F6F70E62FF0E0E45FC3
:10167000FE4F808180936E016091670170916801D7
:101680008091690190916A01A70196010E94C00FA3
:10169000CA01B901A70196010E94C00F6F70E62F21
:1016A000F0E0E45FFE4F808180936D0160916701FF
:1016B000709168018091690190916A01A301920182
:1016C0000E94C00FCA01B901A70196010E94C00F74
:1016D0006F70E62FF0E0E45FFE4F808180936C0135
:1016E00060916701709168018091690190916A0130
:1016F000A50194010E94C00FCA01B901A70196017A
:101700000E94C00F6F70E62FF0E0E45FFE4F808113
:1017100080936B01D09352020E94820462E370E0D6
:1017200080E090E00E94D104C09352020E948204A3
:1017300062E370E080E090E00E94D104F9CE8FE097
:10174000809352020E948204C0E0D0E08BEA882E8F
:101750008AEA982E86EAA82E83E4B82E83E591E0E3
:101760000E94A30720E030E84BE355E46091240297
:101770007091250280912602909127020E94840D8B
:10178000882309F44DC080E090E8ABE3B5E4809392
:10179000240290932502A0932602B0932702809200
:1017A0004C0290924D02A0924E02B0924F02809154
:1017B000400290914102A0914202B091430218165A
:1017C00019061A061B0664F5609120027091210229
:1017D00080912202909123029B01AC010E94E80EAD
:1017E0006B017C01609128027091290280912A028C
:1017F00090912B029B01AC010E94180D9B01AC0142
:10180000C701B6010E94890D0E94FB0D6093400242
:101810007093410280934202909343020E948C0095
:1018200060E070E08AEF93E40E94160760E084E0D5
:101830000E94A403209108013091090140910A01FE
:1018400050910B016091670170916801809169016D
:1018500090916A010E94B00FC0901C02D0901D02AE
:10186000E0901E02F0901F026C157D058E059F050D
:1018700051F060931C0270931D0280931E0290939E
:101880001F020E948C008091300290913102A09141
:101890003202B0913302892B8A2B8B2B09F44DC075
:1018A0000E94AC046B017C0180913402909135025E
:1018B000A0913602B0913702B701A601481B590B1F
:1018C0006A0B7B0B8091300290913102A091320221
:1018D000B0913302481759076A077B0770F180916E
:1018E000180290911902A0911A02B0911B02209146
:1018F0000E02222309F497C00196A11DB11D809309
:10190000180290931902A0931A02B0931B024091FF
:1019100018025091190260911A0270911B028CE01A
:1019200092E00E94D606C0923402D0923502E09234
:101930003602F09237020E948C0020E030E0A901CC
:1019400060912002709121028091220290912302E5
:101950000E94840D811197CF40911C0250911D026D
:1019600060911E0270911F028091180290911902DD
:10197000A0911A02B0911B02481759076A077B070A
:1019800009F081CF64EF71E080E090E00E94D10423
:10199000109218021092190210921A0210921B0251
:1019A00010921C0210921D0210921E0210921F0231
:1019B0001092400210924102109242021092430291
:1019C00010923002109231021092320210923302C1
:1019D00010922002109221021092220210922302F1
:1019E0008BE00E947B03892B79F061E084E00E9408
:1019F000A40364E670E080E090E00E94D1048BE0F4
:101A00000E947B03892B61F789E591E00E94A3077F
:101A1000209709F4A3CE0E94AF02882309F49ECE3A
:101A20000E9400009BCE0197A109B10968CF5058D0
:101A3000BB27AA270E942F0D0C94A90E0E949B0E73
:101A400038F00E94A20E20F039F49F3F19F426F4DA
:101A50000C94980E0EF4E095E7FB0C94920EE92F8F
:101A60000E94BA0E58F3BA176207730784079507E6
:101A700020F079F4A6F50C94DC0E0EF4E0950B2E14
:101A8000BA2FA02D0B01B90190010C01CA01A001D0
:101A90001124FF27591B99F0593F50F4503E68F12B
:101AA0001A16F040A22F232F342F4427585FF3CF6C
:101AB000469537952795A795F0405395C9F77EF43D
:101AC0001F16BA0B620B730B840BBAF09150A1F086
:101AD000FF0FBB1F661F771F881FC2F70EC0BA0F0C
:101AE000621F731F841F48F4879577956795B79594
:101AF000F7959E3F08F0B0CF9395880F08F099278F
:101B0000EE0F9795879508950E946E0E08F481E078
:101B100008950E949D0D0C94A90E0E94A20E58F0EB
:101B20000E949B0E40F029F45F3F29F00C94920E26
:101B300051110C94DD0E0C94980E0E94BA0E68F3AD
:101B40009923B1F3552391F3951B550BBB27AA2776
:101B500062177307840738F09F5F5F4F220F331FB0
:101B6000441FAA1FA9F335D00E2E3AF0E0E832D078
:101B700091505040E695001CCAF72BD0FE2F29D07B
:101B8000660F771F881FBB1F261737074807AB074D
:101B9000B0E809F0BB0B802DBF01FF2793585F4FC2
:101BA0003AF09E3F510578F00C94920E0C94DD0EA5
:101BB0005F3FE4F3983ED4F3869577956795B795A4
:101BC000F7959F5FC9F7880F911D9695879597F9AF
:101BD0000895E1E0660F771F881FBB1F6217730728
:101BE0008407BA0720F0621B730B840BBA0BEE1F3D
:101BF00088F7E09508950E94020E6894B1110C9444
:101C0000DD0E08950E94C20E88F09F5798F0B92FFC
:101C10009927B751B0F0E1F0660F771F881F991F21
:101C20001AF0BA95C9F714C0B13091F00E94DC0ED9
:101C3000B1E008950C94DC0E672F782F8827B85FE9
:101C400039F0B93FCCF3869577956795B395D9F779
:101C50003EF490958095709561957F4F8F4F9F4F83
:101C60000895E89409C097FB3EF49095809570958F
:101C700061957F4F8F4F9F4F9923A9F0F92F96E9D8
:101C8000BB279395F695879577956795B795F1114D
:101C9000F8CFFAF4BB0F11F460FF1BC06F5F7F4FEA
:101CA0008F4F9F4F16C0882311F096E911C07723FC
:101CB00021F09EE8872F762F05C0662371F096E805
:101CC000862F70E060E02AF09A95660F771F881FD4
:101CD000DAF7880F9695879597F90895990F000878
:101CE000550FAA0BE0E8FEEF16161706E807F907EE
:101CF000C0F012161306E407F50798F0621B730B89
:101D0000840B950B39F40A2661F0232B242B252B09
:101D100021F408950A2609F4A140A6958FEF811DAC
:101D2000811D089597F99F6780E870E060E008954D
:101D30009FEF80EC089500240A94161617061806E3
:101D40000906089500240A941216130614060506BF
:101D50000895092E0394000C11F4882352F0BB0F50
:101D600040F4BF2B11F460FF04C06F5F7F4F8F4FB3
:101D70009F4F089557FD9058440F551F59F05F3FEE
:101D800071F04795880F97FB991F61F09F3F79F09D
:101D900087950895121613061406551FF2CF46951F
:101DA000F1DF08C0161617061806991FF1CF8695A1
:101DB0007105610508940895E894BB276627772785
:101DC000CB0197F908950E946E0E08F48FEF0895E5
:101DD0000E94FB0E0C94A90E0E949B0E38F00E94EC
:101DE000A20E20F0952311F00C94920E0C94980EF4
:101DF00011240C94DD0E0E94BA0E70F3959FC1F36E
:101E0000950F50E0551F629FF001729FBB27F00DA8
:101E1000B11D639FAA27F00DB11DAA1F649F6627FD
:101E2000B00DA11D661F829F2227B00DA11D621F4C
:101E3000739FB00DA11D621F839FA00D611D221F06
:101E4000749F3327A00D611D231F849F600D211DEA
:101E5000822F762F6A2F11249F5750409AF0F1F06D
:101E600088234AF0EE0FFF1FBB1F661F771F881FD6
:101E700091505040A9F79E3F510580F00C94920E6E
:101E80000C94DD0E5F3FE4F3983ED4F3869577958E
:101E90006795B795F795E7959F5FC1F7FE2B880F7C
:101EA000911D9695879597F9089519F416F40C9459
:101EB000980E0C949B0F0E94C20EB8F39923C9F39D
:101EC000B6F39F57550B87FF0E94A90F0024A0E689
:101ED00040EA900180585695979528F4805C660FEB
:101EE000771F881F20F026173707480730F4621B3A
:101EF000730B840B202931294A2BA695179407943C
:101F0000202531254A2758F7660F771F881F20F0B4
:101F100026173707480730F4620B730B840B200D2C
:101F2000311D411DA09581F7B901842F9158880F6B
:101F30009695879508959F3F31F0915020F48795AD
:101F400077956795B795880F911D9695879597F921
:101F5000089591505040660F771F881FD2F708955B
:101F6000DB018F939F930E94E50FBF91AF91A29FDA
:101F7000800D911DA39F900DB29F900D1124089587
:101F8000052E97FB1EF400940E94D70F57FD07D033
:101F90000E94F00F07FC03D04EF40C94D70F50951D
:101FA0004095309521953F4F4F4F5F4F0895909545
:101FB0008095709561957F4F8F4F9F4F0895EE0FDD
:101FC000FF1F0590F491E02D09940E941210A59F27
:101FD000900DB49F900DA49F800D911D1124089524
:101FE000A1E21A2EAA1BBB1BFD010DC0AA1FBB1F1D
:101FF000EE1FFF1FA217B307E407F50720F0A21B8F
:10200000B30BE40BF50B661F771F881F991F1A94FB
:1020100069F760957095809590959B01AC01BD0125
:10202000CF010895A29FB001B39FC001A39F700D7F
:10203000811D1124911DB29F700D811D1124911DD0
:102040000895F894FFCF0700000004000000400648
:1020500000003F065B4F666D7D077F6F777C395EC2
:102060007971030406080C10172100000000E50236
:10207000450272023203A3028102950200000000B1
:10208000370503059806D606820650062F06FB057F
:10209000DA05840555050D0A005374617274004514
:0420A0006E6400006A
:107E0000112484B714BE81FFF0D085E080938100F7
:107E100082E08093C00088E18093C10086E0809377
:107E2000C20080E18093C4008EE0C9D0259A86E02C
:107E300020E33CEF91E0309385002093840096BBD3
:107E4000B09BFECF1D9AA8958150A9F7CC24DD24C4
:107E500088248394B5E0AB2EA1E19A2EF3E0BF2EE7
:107E6000A2D0813461F49FD0082FAFD0023811F036
:107E7000013811F484E001C083E08DD089C08234E0
:107E800011F484E103C0853419F485E0A6D080C0E4
:107E9000853579F488D0E82EFF2485D0082F10E0AE
:107EA000102F00270E291F29000F111F8ED06801E7
:107EB0006FC0863521F484E090D080E0DECF843638
:107EC00009F040C070D06FD0082F6DD080E0C81688
:107ED00080E7D80618F4F601B7BEE895C0E0D1E017
:107EE00062D089930C17E1F7F0E0CF16F0E7DF06D8
:107EF00018F0F601B7BEE89568D007B600FCFDCFD4
:107F0000A601A0E0B1E02C9130E011968C91119780
:107F100090E0982F8827822B932B1296FA010C0160
:107F200087BEE89511244E5F5F4FF1E0A038BF0790
:107F300051F7F601A7BEE89507B600FCFDCF97BE46
:107F4000E89526C08437B1F42ED02DD0F82E2BD052
:107F50003CD0F601EF2C8F010F5F1F4F84911BD097
:107F6000EA94F801C1F70894C11CD11CFA94CF0C13
:107F7000D11C0EC0853739F428D08EE10CD085E9AC
:107F80000AD08FE07ACF813511F488E018D01DD067
:107F900080E101D065CF982F8091C00085FFFCCF94
:107FA0009093C60008958091C00087FFFCCF809118
:107FB000C00084FD01C0A8958091C6000895E0E648
:107FC000F0E098E1908380830895EDDF803219F02E
:107FD00088E0F5DFFFCF84E1DECF1F93182FE3DFCA
:107FE0001150E9F7F2DF1F91089580E0E8DFEE27F6
:047FF000FF270994CA
:027FFE00040479
:00000001FF
