:100000000C9462000C948A000C948A000C948A0070
:100010000C948A000C948A000C948A000C948A0038
:100020000C948A000C948A000C948A000C948A0028
:100030000C948A000C948A000C948A000C948A0018
:100040000C94DE070C948A000C94AC070C94860781
:100050000C948A000C948A000C948A000C948A00F8
:100060000C948A000C948A000000000024002700F1
:100070002A0000000000250028002B0000000000DE
:1000800023002600290004040404040404040202DA
:100090000202020203030303030301020408102007
:1000A0004080010204081020010204081020000012
:1000B0000008000201000003040700000000000027
:1000C0000000280811241FBECFEFD8E0DEBFCDBF4F
:1000D00011E0A0E0B1E0E4E2FFE102C005900D9282
:1000E000A235B107D9F722E0A2E5B1E001C01D9227
:1000F000A534B207E1F710E0C2E6D0E004C02197D2
:10010000FE010E94700FC136D107C9F70E94D008C6
:100110000C94900F0C9400004F925F926F927F921C
:100120008F929F92AF92BF92CF92DF92EF92FF9207
:100130000F931F93CF93DF93C0901102D0901202C0
:10014000E0901302F090140280910D0290910E0243
:10015000A0910F02B0911002C81AD90AEA0AFB0A4C
:100160006091150270911602809117029091180209
:100170009B01AC010E94570E4B015C0160911D0276
:1001800070911E0280911F02909120029B01AC0190
:100190000E94870C9B01AC01C501B4010E94F80CC0
:1001A0000E946A0DC114D104E104F10409F0D3C026
:1001B00062307105810591050CF0F2C010922502A4
:1001C0001092260210922702109228021092150215
:1001D0001092160210921702109218021092350215
:1001E000109236021092370210923802DF91CF91AE
:1001F0001F910F91FF90EF90DF90CF90BF90AF9045
:100200009F908F907F906F905F904F900895101601
:10021000110612061306DCF46C157D058E059F058C
:1002200024F4209103022111BBC09B01AC0188275B
:100230009927DC01821B930BA40BB50B809335022D
:1002400090933602A0933702B0933802A9C00115EB
:1002500011052105310509F4A3C06C157D058E0536
:100260009F050CF09DC080910302882309F498C07B
:1002700030952095109501951F4F2F4F3F4F0093BC
:10028000350210933602209337023093380288C02B
:10029000011511052105310509F482C0882499242E
:1002A00054018C189D08AE08BF08681579058A05A9
:1002B0009B050CF075C080910302811171C0D8CFED
:1002C000C0903D02D0903E02E0903F02F09040028C
:1002D000A7019601C701B6010E94870C2B013C01C2
:1002E000C501B4010E94A20D20E030E040E850E4D6
:1002F0000E94570E20E030E040E85FE30E94870C48
:100300009B01AC01C301B2010E94F80C9B01AC013E
:10031000C701B6010E94860CD62FC72F6C01E09052
:100320004102F09042020091430210914402970171
:10033000A8010E94520E18161CF4ED2EFC2E860108
:10034000C701D80180933D0290933E02A0933F02E3
:10035000B09340024CC000913502109136022091BA
:100360003702309138021C141D041E041F040CF4C3
:100370004ECF10161106120613060CF089CF002777
:10038000112798010C191D092E093F0960177107E3
:10039000820793070CF049CF20910302211145CF2A
:1003A0008090350290903602A0903702B0903802CB
:1003B00081149104A104B10409F082CF8091390223
:1003C00090913A02A0913B02B0913C0280933D0291
:1003D00090933E02A0933F02B093400281E01C1430
:1003E0001D041E041F040CF080E0809303023FEF05
:1003F000831A930AA30AB30A8092350290923602B6
:10040000A0923702B0923802C0903D02D0903E02D6
:10041000E0903F02F0904002C701B6010E94710DCA
:1004200060932502709326028093270290932802FE
:10043000A701960160E074E284E799E40E94F80C59
:10044000609315027093160280931702909318021E
:10045000209103022111CACE905860931502709327
:1004600016028093170290931802C0CE8091FF016C
:10047000909100028230910538F0880F991F880F03
:10048000991F05970197F1F70895AF92BF92CF9208
:10049000DF92EF92FF920F931F93CF93DF936C0144
:1004A0007B018B01040F151FEB015E01AE18BF0825
:1004B000C017D10759F06991D601ED91FC910190D7
:1004C000F081E02DC6010995892B79F7C501DF91EF
:1004D000CF911F910F91FF90EF90DF90CF90BF9041
:1004E000AF900895FC01538D448D252F30E0842F6B
:1004F00090E0821B930B541710F0CF96089501974C
:100500000895FC01918D828D981761F0A28DAE0F38
:10051000BF2FB11D5D968C91928D9F5F9F73928FBF
:1005200090E008958FEF9FEF0895FC01918D828DEB
:10053000981731F0828DE80FF11D858D90E00895B8
:100540008FEF9FEF0895FC01918D228D892F90E010
:10055000805C9F4F821B91098F73992708958FE5C7
:1005600091E00E94A30221E0892B09F420E0822F70
:10057000089580E090E0892B29F00E94AF0281115C
:100580000C9400000895FC01A48DA80FB92FB11D93
:10059000A35ABF4F2C91848D90E001968F739927B9
:1005A000848FA689B7892C93A089B1898C91837097
:1005B00080648C93938D848D981306C00288F38990
:1005C000E02D80818F7D80830895EF92FF920F93BD
:1005D0001F93CF93DF93EC0181E0888F9B8D8C8DEF
:1005E00098131AC0E889F989808185FF15C09FB7E3
:1005F000F894EE89FF896083E889F98980818370A6
:10060000806480839FBF81E090E0DF91CF911F9154
:100610000F91FF90EF900895F62E0B8D10E00F5F75
:100620001F4F0F731127E02E8C8D8E110CC00FB64B
:1006300007FCFACFE889F989808185FFF5CFCE01E3
:100640000E94C302F1CFEB8DEC0FFD2FF11DE35A99
:10065000FF4FF0829FB7F8940B8FEA89FB89808166
:100660008062CFCFCF93DF93EC01888D8823B9F0E0
:10067000AA89BB89E889F9898C9185FD03C08081AD
:1006800086FD0DC00FB607FCF7CF8C9185FFF2CF2A
:10069000808185FFEDCFCE010E94C302E9CFDF91BB
:1006A000CF910895833081F028F4813099F0823021
:1006B000A9F008958730A9F08830C9F08430B1F4EA
:1006C000809180008F7D03C0809180008F77809320
:1006D0008000089584B58F7784BD089584B58F7D9B
:1006E000FBCF8091B0008F778093B0000895809108
:1006F000B0008F7DF9CFCF93DF93282F30E0F90141
:10070000E255FF4F8491F901E656FF4FD491F9016C
:10071000EA57FF4FC491CC23A1F081110E945203EC
:10072000EC2FF0E0EE0FFF1FE458FF4FA591B491BE
:10073000EC91ED2381E090E009F480E0DF91CF912E
:10074000089580E090E0FACF1F93CF93DF93282F96
:1007500030E0F901E255FF4F8491F901E656FF4F71
:10076000D491F901EA57FF4FC491CC23A9F0162F79
:1007700081110E945203EC2FF0E0EE0FFF1FEE58A4
:10078000FF4FA591B4918FB7F894EC91111108C067
:10079000D095DE23DC938FBFDF91CF911F91089519
:1007A000DE2BF8CFCF93DF9390E0FC01E656FF4FAE
:1007B00024918A579F4FFC0184918823C9F090E0CF
:1007C000880F991FFC01E859FF4FA591B491FC01D6
:1007D000EE58FF4FC591D49161110DC09FB7F894A9
:1007E0008C91209582238C938881282328839FBF16
:1007F000DF91CF910895623051F49FB7F8943C9106
:10080000822F809583238C93E8812E2BEFCF8FB797
:10081000F894EC912E2B2C938FBFEACFCF93DF93DC
:10082000CCEFD1E061E089810E94D2030E943602C0
:1008300060E088810E94D2030E94360260E08981D4
:100840000E94D203DF91CF910C9436020F931F9335
:10085000CF93DF93D82FC8E061E08091FC010E9424
:10086000D2030E9436020D2F10E060E0D0FF61E05D
:100870008091FD010E94D2030E94360260E08091C7
:10088000FC010E94D2030E94360215950795D02FD5
:10089000C15011F761E08091FC010E94D20360E039
:1008A0008091FD010E94D2030E94360260E0809197
:1008B000FC010E94D2030E9436028091FD010E9439
:1008C0007B03C82F811105C061E08091FD010E946A
:1008D000D2030E94360261E08091FC010E94D203A3
:1008E0000E94360281E0C11101C080E0DF91CF910A
:1008F0001F910F91089561E08091FD010E94D20344
:100900000C9436023FB7F8948091570190915801AA
:10091000A0915901B0915A0126B5A89B05C02F3F5F
:1009200019F00196A11DB11D3FBFBA2FA92F982F15
:100930008827BC01CD01620F711D811D911D42E010
:10094000660F771F881F991F4A95D1F708958F92D8
:100950009F92AF92BF92CF92DF92EF92FF924B01A4
:100960005C010E9482046B017C010E9482046C196C
:100970007D098E099F09683E734081059105A8F3A2
:1009800021E0821A9108A108B10888EEC80E83E020
:10099000D81EE11CF11C81149104A104B10429F7B3
:1009A000FF90EF90DF90CF90BF90AF909F908F908F
:1009B0000895CF93DF93FC012381222359F1EC01A9
:1009C00061E084810E94D20361E08D810E94D203A4
:1009D0008B81843011F08830B1F461E08E810E9407
:1009E000D20361E08F810E94D2038FA58F3F91F0E7
:1009F00061E00E94D2036EA581E068278FA5DF9198
:100A0000CF910C94A403833011F0863071F761E02C
:100A10008E81E9CFDF91CF910895CF93DF93FC01D1
:100A200023812223A9F0EC010190F081E02D0480C4
:100A3000F581E02D60E009958FA58F3F49F061E0D9
:100A40000E94D2036EA58FA5DF91CF910C94A403D1
:100A5000DF91CF910895DC01ED91FC9124813581E6
:100A60004770552766277727415051096109710959
:100A7000473051056105710560F4FA01EE5BFA4FEC
:100A80000C94700F4C054E05500552055405560543
:100A9000580561E0F901099465E0FCCF64E0FACF04
:100AA00066E0F8CF62E0F6CF6AE0F4CF68E0F2CF1C
:100AB00069E0F0CFCF93DF93EC01CB01BA0126E0E0
:100AC00030E040E050E00E94510F62307105810536
:100AD000910589F16CF46115710581059105D1F0DD
:100AE0006130710581059105F9F0DF91CF9108958D
:100AF000643071058105910561F124F1653071055E
:100B00008105910591F7E881F9810480F581E02D57
:100B100066E006C0E881F9810480F581E02D64E09B
:100B2000CE01DF91CF910994E881F9810480F581AC
:100B3000E02D65E0F5CFE881F9810480F581E02DB5
:100B400061E0EECFE881F9810480F581E02D63E07A
:100B5000E7CFE881F9810480F581E02D62E0E0CF04
:100B6000DC01ED91FC910480F581E02D4370552767
:100B700066277727423051056105710571F04330D2
:100B800051056105710559F0413051056105710547
:100B900011F065E0099466E0FDCF6AE0FBCF69E003
:100BA000F9CFCF93DF93EC01CB01BA0123E030E022
:100BB00040E050E00E94510F6130710581059105C0
:100BC00099F06230710581059105A9F0672B682BBA
:100BD000692BC1F4E881F9810480F581E02D64E09E
:100BE000CE01DF91CF910994E881F9810480F581EC
:100BF000E02D61E0F5CFE881F9810480F581E02DF9
:100C000062E0EECFDF91CF910895DC01ED91FC9190
:100C10000480F581E02D4370552766277727423001
:100C200051056105710571F043305105610571058C
:100C300059F0413051056105710511F062E00994E8
:100C400063E0FDCF61E0FBCF60E0F9CFCF93DF93AE
:100C5000EC01E881F9810480F581E02D8A8160E072
:100C6000811162E0CE010995E881F9810480F58166
:100C7000E02D8A8161E0811163E0CE0109958CA5A8
:100C80009DA58230910538F0880F991F880F991F14
:100C900005970197F1F7E881F9810480F581E02D4E
:100CA0008A8160E0811162E0CE01DF91CF910994E9
:100CB000CF93DF93EC0120E030E0A9016C897D89BE
:100CC0008E899F890E94520E18162CF4E8A9F9A962
:100CD000DF91CF910994EAA9FBA9FACFCF92DF92D5
:100CE000EF92FF920F931F93CF93DF93DC01139644
:100CF000CC91C43039F0C83059F1C33019F0C63046
:100D000049F1C2E08C010C5F1F4FF12CE12CC62E83
:100D1000D12CD1E0F8016481C6010E2C02C095955A
:100D200087950A94E2F780FD6D270F5F1F4F808142
:100D30000E94A403BFEFEB1AFB0AEC1658F3DF91F5
:100D4000CF911F910F91FF90EF90DF90CF9008957A
:100D5000C4E0D8CFC3E0D6CFDC011396EC91139753
:100D6000E93008F038C0F0E0E854F94F0C94700F07
:100D7000C106C706CD06D306D906EB06DF06EB068D
:100D8000E506ED91FC910084F185E02D0994ED914B
:100D9000FC910284F385E02DF9CFED91FC91048460
:100DA000F585E02DF3CFED91FC910684F785E02DDC
:100DB000EDCFED91FC910088F189E02DE7CFED9129
:100DC000FC910288F389E02DE1CFED91FC9104883C
:100DD000F589E02DDBCF08954F925F926F927F925D
:100DE0008F929F92AF92BF92CF92DF92EF92FF923B
:100DF0006B017C0120E030E0A9010E94F30C87FF29
:100E000004C0F7FAF094F7F8F09480901D029090E7
:100E10001E02A0901F02B0902002A7019601C501FA
:100E2000B4010E94F30C882309F456C06091350286
:100E30007091360280913702909138020E94A20D83
:100E40002B013C01A7019601C501B4010E94F80CD9
:100E50009B01AC01C301B2010E94570E0E946A0DB2
:100E60006093350270933602809337029093380274
:100E7000A701960160E070E080E090E40E94F80C29
:100E80000E94CA0E26E53EE04DE25FE30E94570E47
:100E900020E034E244E759E40E94570E609339029F
:100EA00070933A0280933B0290933C02C0921D02E1
:100EB000D0921E02E0921F02F0922002FF90EF906B
:100EC000DF90CF90BF90AF909F908F907F906F906A
:100ED0005F904F900C948C00FF90EF90DF90CF903C
:100EE000BF90AF909F908F907F906F905F904F904A
:100EF0000895FC0101900020E9F73197AF01481BEC
:100F0000590BBC018FE591E00C9445021F920F92A2
:100F10000FB60F9211242F933F934F935F936F93CC
:100F20007F938F939F93AF93BF93EF93FF938FE53F
:100F300091E00E94C302FF91EF91BF91AF919F9109
:100F40008F917F916F915F914F913F912F910F9072
:100F50000FBE0F901F9018951F920F920FB60F9211
:100F600011242F938F939F93EF93FF93E0916F0141
:100F7000F09170018081E0917501F091760182FD20
:100F80001BC09081809178018F5F8F7320917901D0
:100F9000821741F0E0917801F0E0E15AFE4F958F21
:100FA00080937801FF91EF919F918F912F910F90F6
:100FB0000FBE0F901F9018958081F4CF1F920F9253
:100FC0000FB60F9211242F933F938F939F93AF935C
:100FD000BF938091530190915401A0915501B0911C
:100FE00056013091520123E0230F2D3758F5019619
:100FF000A11DB11D20935201809353019093540180
:10100000A0935501B09356018091570190915801DA
:10101000A0915901B0915A010196A11DB11D809373
:10102000570190935801A0935901B0935A01BF9171
:10103000AF919F918F913F912F910F900FBE0F9085
:101040001F90189526E8230F0296A11DB11DD2CF3F
:101050001F93CF93DF93EFE5F1E01382128288EEC6
:1010600093E0A0E0B0E084839583A683B7838CE10E
:1010700091E09183808385EC90E09587848784EC70
:1010800090E09787868780EC90E0918B808B81EC55
:1010900090E0938B828B82EC90E0958B848B86EC36
:1010A00090E0978B868B118E128E138E148EE1E05A
:1010B000F2E08EE291E09183808381E08383148665
:1010C000158616861786108A118A128A138A148A40
:1010D000158A168A178A80E090E0A0E8BFE3808F27
:1010E000918FA28FB38F148E158E168E178E80A3BC
:1010F00091A3A2A3B3A314A215A216A217A221E042
:1011000030E035A724A72FEF27A710A611A612A617
:1011100013A623E0248322E0258324E0268315E020
:10112000178316A614AA15AA16AA17AA10AE11AEEE
:1011300012AE13AE14AE15AE16AE17AE80934102CA
:1011400090934202A0934302B0934402128210860D
:10115000118612861386CF010E94D90460E070E0E8
:1011600080E89FE30E94EC06CCEFD1E0188386E094
:10117000898384E690E09C838B8360E085E00E9415
:10118000D20360E089810E94D20360E088810E94DE
:10119000A40360E08981DF91CF911F910C94A40397
:1011A000CF93DF93CDB7DEB7A1970FB6F894DEBF2C
:1011B0000FBECDBF789484B5826084BD84B5816054
:1011C00084BD85B5826085BD85B5816085BD809112
:1011D0006E00816080936E0010928100809181008A
:1011E0008260809381008091810081608093810082
:1011F000809180008160809380008091B100846044
:101200008093B1008091B00081608093B0008091A4
:101210007A00846080937A0080917A008260809363
:101220007A0080917A00816080937A0080917A00C0
:10123000806880937A001092C100E0916F01F09174
:10124000700182E08083E0916B01F0916C0110826B
:10125000E0916D01F0916E018FEC80831092770127
:10126000E0917301F091740186E08083E091710157
:10127000F0917201808180618083E0917101F09131
:101280007201808188608083E0917101F091720128
:10129000808180688083E0917101F091720180818A
:1012A0008F7D808320E030E84BE355E460911902A4
:1012B00070911A0280911B0290911C020E94F30C03
:1012C000882309F451C080E090E8ABE3B5E4809353
:1012D000190290931A02A0931B02B0931C028BEA8E
:1012E0009AEAA6EAB3E48093410290934202A09363
:1012F0004302B09344028091350290913602A0914E
:101300003702B0913802181619061A061B0664F542
:101310006091150270911602809117029091180247
:101320009B01AC010E94570E6B017C0160911D0274
:1013300070911E0280911F02909120029B01AC01CE
:101340000E94870C9B01AC01C701B6010E94F80CFA
:101350000E946A0D609335027093360280933702C3
:10136000909338020E948C0060E070E08AEF93E472
:101370000E94EC0661E084E00E94D20361E084E018
:101380000E94A40362E08BE00E94D20362E08CE042
:101390000E94D20362E08DE00E94D2038FE080932E
:1013A000FE013AE0C32ED12CE12CF12C44E6842E30
:1013B000912CA12CB12C58EE452E53E0552E612CCA
:1013C000712C8BE00E947B03892B09F0BEC18AE05F
:1013D000C82ED12CE12CF12C90E0292E90E0392E52
:1013E0002BEA422E2AEA522E26EA622E23E4722E9D
:1013F00084E491E00E9479078AE491E00E947907F1
:1014000020E030E84BE355E46091190270911A0234
:1014100080911B0290911C020E94F30C882309F416
:101420004DC080E090E8ABE3B5E48093190290935F
:101430001A02A0931B02B0931C02409241025092E8
:101440004202609243027092440280913502909170
:101450003602A0913702B0913802181619061A0602
:101460001B0664F5609115027091160280911702B7
:10147000909118029B01AC010E94570E4B015C0138
:1014800060911D0270911E0280911F0290912002B6
:101490009B01AC010E94870C9B01AC01C501B4010A
:1014A0000E94F80C0E946A0D609335027093360218
:1014B00080933702909338020E948C0060E070E0C5
:1014C0008AEF93E40E94EC0660E084E00E94A403AB
:1014D00020910401309105014091060150910701CE
:1014E00060910001709101018091020190910301CE
:1014F0000E941F0F009111021091120220911302FD
:1015000030911402601771078207930751F06093BE
:1015100011027093120280931302909314020E949E
:101520008C008091250290912602A0912702B09113
:101530002802892B8A2B8B2B09F44DC00E94820430
:101540004B015C018091290290912A02A0912B020B
:10155000B0912C02B501A401481B590B6A0B7B0BFF
:101560008091250290912602A0912702B091280235
:10157000481759076A077B0770F180910D02909117
:101580000E02A0910F02B0911002209103022223BB
:1015900009F4A2C10196A11DB11D80930D02909383
:1015A0000E02A0930F02B093100240910D025091D1
:1015B0000E0260910F027091100281E092E00E9491
:1015C000AC068092290290922A02A0922B02B0923D
:1015D0002C020E948C0020E030E0A90160911502ED
:1015E0007091160280911702909118020E94F30CDC
:1015F000811197CF40911102509112026091130214
:101600007091140280910D0290910E02A0910F0230
:10161000B0911002481759076A077B0709F081CF7C
:1016200060ED77E080E090E00E94A70410920D0248
:1016300010920E0210920F021092100210921102DC
:10164000109212021092130210921402109235029C
:101650001092360210923702109238021092250230
:101660001092260210922702109228021092150260
:101670001092160210921702109218028BE00E942C
:101680007B03892B79F061E084E00E94A40364E687
:1016900070E080E090E00E94A7048BE00E947B0352
:1016A000892B61F78DE491E00E9479078AE491E04B
:1016B0000E947907209104013091050140910601B3
:1016C0005091070160910001709101018091020128
:1016D000909103010E941F0F4B015C01B7FE00C1F6
:1016E0006DE28FE591E00E94E50222273327A901F0
:1016F000281939094A095B0919A28E010F5D1F4F8C
:10170000CA01B901A70196010E942F0F605DF8017F
:1017100062938F01211531054105510589F70115A6
:10172000110519F0C8010E9479078AE491E00E942E
:1017300079072114310409F45BCE0E94AF0288239B
:1017400009F456CE0E94000053CE8CE00E947B0329
:10175000892BC9F48091000190910101A0910201AF
:10176000B09103010196A11DB11D809300019093DA
:101770000101A0930201B093030168EC70E080E0E6
:1017800090E00E94A7048DE00E947B03892BC9F49E
:101790008091000190910101A0910201B09103019B
:1017A0000197A109B1098093000190930101A093D1
:1017B0000201B093030168EC70E080E090E00E94C9
:1017C000A704609100017091010180910201909144
:1017D0000301A70196010E94510F6F70E62FF0E000
:1017E000E85FFE4F808180935E01609100017091FF
:1017F00001018091020190910301A70196010E94CD
:10180000510FCA01B901A70196010E94510F6F70D3
:10181000E62FF0E0E85FFE4F808180935D016091EC
:101820000001709101018091020190910301A501D5
:1018300094010E94510FCA01B901A70196010E94AB
:10184000510F6F70E62FF0E0E85FFE4F80818093CC
:101850005C01609100017091010180910201909101
:101860000301A30192010E94510FCA01B901A7010E
:1018700096010E94510F6F70E62FF0E0E85FFE4F77
:10188000808180935B010E947B0480E40E94260497
:101890000E940E040E947B0480EC0E94260480912A
:1018A0005B010E94260480915C010E9426048091C5
:1018B0005D010E94260480915E010E9426040E9420
:1018C0000E040E947B048091FE018F7080580E945C
:1018D00026040E940E0475CD0197A109B1095DCEC1
:1018E000AC019B0119A28E010F5D1F4FCA01B90106
:1018F000A70196010E942F0F605DF80162938F018E
:10190000211531054105510589F709CF5058BB27ED
:10191000AA270E949E0C0C94180E0E940A0E38F002
:101920000E94110E20F039F49F3F19F426F40C9414
:10193000070E0EF4E095E7FB0C94010EE92F0E94D0
:10194000290E58F3BA17620773078407950720F02A
:1019500079F4A6F50C944B0E0EF4E0950B2EBA2FED
:10196000A02D0B01B90190010C01CA01A0011124A5
:10197000FF27591B99F0593F50F4503E68F11A1651
:10198000F040A22F232F342F4427585FF3CF4695E2
:1019900037952795A795F0405395C9F77EF41F1604
:1019A000BA0B620B730B840BBAF09150A1F0FF0FCE
:1019B000BB1F661F771F881FC2F70EC0BA0F621FBA
:1019C000731F841F48F4879577956795B795F795AA
:1019D0009E3F08F0B0CF9395880F08F09927EE0F3F
:1019E0009795879508950E94DD0D08F481E008958C
:1019F0000E940C0D0C94180E0E94110E58F00E94BB
:101A00000A0E40F029F45F3F29F00C94010E5111A9
:101A10000C944C0E0C94070E0E94290E68F3992327
:101A2000B1F3552391F3951B550BBB27AA276217DA
:101A30007307840738F09F5F5F4F220F331F441FE7
:101A4000AA1FA9F335D00E2E3AF0E0E832D091501B
:101A50005040E695001CCAF72BD0FE2F29D0660F08
:101A6000771F881FBB1F261737074807AB07B0E84B
:101A700009F0BB0B802DBF01FF2793585F4F3AF051
:101A80009E3F510578F00C94010E0C944C0E5F3F74
:101A9000E4F3983ED4F3869577956795B795F795D7
:101AA0009F5FC9F7880F911D9695879597F90895BF
:101AB000E1E0660F771F881FBB1F6217730784075B
:101AC000BA0720F0621B730B840BBA0BEE1F88F76A
:101AD000E09508950E94710D6894B1110C944C0E1C
:101AE00008950E94310E88F09F5798F0B92F9927DA
:101AF000B751B0F0E1F0660F771F881F991F1AF0F9
:101B0000BA95C9F714C0B13091F00E944B0EB1E004
:101B100008950C944B0E672F782F8827B85F39F003
:101B2000B93FCCF3869577956795B395D9F73EF491
:101B300090958095709561957F4F8F4F9F4F089539
:101B4000E89409C097FB3EF4909580957095619557
:101B50007F4F8F4F9F4F9923A9F0F92F96E9BB270D
:101B60009395F695879577956795B795F111F8CF89
:101B7000FAF4BB0F11F460FF1BC06F5F7F4F8F4FF4
:101B80009F4F16C0882311F096E911C0772321F0EA
:101B90009EE8872F762F05C0662371F096E8862F82
:101BA00070E060E02AF09A95660F771F881FDAF7D9
:101BB000880F9695879597F90895990F0008550F06
:101BC000AA0BE0E8FEEF16161706E807F907C0F0C3
:101BD00012161306E407F50798F0621B730B840BCB
:101BE000950B39F40A2661F0232B242B252B21F4A5
:101BF00008950A2609F4A140A6958FEF811D811D45
:101C0000089597F99F6780E870E060E008959FEF7E
:101C100080EC089500240A94161617061806090683
:101C2000089500240A941216130614060506089552
:101C3000092E0394000C11F4882352F0BB0F40F4DA
:101C4000BF2B11F460FF04C06F5F7F4F8F4F9F4F1A
:101C5000089557FD9058440F551F59F05F3F71F09C
:101C60004795880F97FB991F61F09F3F79F0879503
:101C70000895121613061406551FF2CF4695F1DF8C
:101C800008C0161617061806991FF1CF869571051C
:101C9000610508940895E894BB2766277727CB0150
:101CA00097F908950E94DD0D08F48FEF08950E94C2
:101CB0006A0E0C94180E0E940A0E38F00E94110E43
:101CC00020F0952311F00C94010E0C94070E1124B2
:101CD0000C944C0E0E94290E70F3959FC1F3950F42
:101CE00050E0551F629FF001729FBB27F00DB11DA0
:101CF000639FAA27F00DB11DAA1F649F6627B00D30
:101D0000A11D661F829F2227B00DA11D621F739F18
:101D1000B00DA11D621F839FA00D611D221F749F26
:101D20003327A00D611D231F849F600D211D822F6D
:101D3000762F6A2F11249F5750409AF0F1F0882394
:101D40004AF0EE0FFF1FBB1F661F771F881F9150C1
:101D50005040A9F79E3F510580F00C94010E0C9461
:101D60004C0E5F3FE4F3983ED4F3869577956795E4
:101D7000B795F795E7959F5FC1F7FE2B880F911DEB
:101D80009695879597F9089519F416F40C94070E13
:101D90000C940A0F0E94310EB8F39923C9F3B6F3DD
:101DA0009F57550B87FF0E94180F0024A0E640EABA
:101DB000900180585695979528F4805C660F771FA0
:101DC000881F20F026173707480730F4621B730B73
:101DD000840B202931294A2BA69517940794202596
:101DE00031254A2758F7660F771F881F20F02617DE
:101DF0003707480730F4620B730B840B200D311D3D
:101E0000411DA09581F7B901842F9158880F9695AF
:101E1000879508959F3F31F0915020F487957795ED
:101E20006795B795880F911D9695879597F90895B1
:101E300091505040660F771F881FD2F70895DB013D
:101E40008F939F930E94760FBF91AF91A29F800DB9
:101E5000911DA39F900DB29F900D11240895A1E2B2
:101E60001A2EAA1BBB1BFD010DC0AA1FBB1FEE1F14
:101E7000FF1FA217B307E407F50720F0A21BB30B5F
:101E8000E40BF50B661F771F881F991F1A9469F7DB
:101E900060957095809590959B01AC01BD01CF0137
:101EA0000895052E97FB1EF400940E94680F57FDBD
:101EB00007D00E942F0F07FC03D04EF40C94680F3C
:101EC00050954095309521953F4F4F4F5F4F089566
:101ED00090958095709561957F4F8F4F9F4F089596
:101EE000EE0FFF1F0590F491E02D09940E94810FE1
:101EF000A59F900DB49F900DA49F800D911D11245E
:101F00000895A29FB001B39FC001A39F700D811DD2
:101F10001124911DB29F700D811D1124911D0895F2
:041F2000F894FFCF63
:101F240001000000400600003F065B4F666D7D0720
:101F34007F6F777C395E797100000000E50245020D
:101F440072023203A30281029502000000000D0513
:101F5400D9046E06AC06580626060506D105B0055A
:101F64005A052B055374617274000D0A00456E64A2
:021F740000006B
:00000001FF
